{
  "contractName": "DarkNyan",
  "abi": [
    {
      "inputs": [],
      "stateMutability": "payable",
      "type": "constructor",
      "payable": true
    },
    {
      "anonymous": false,
      "inputs": [
        {
          "indexed": true,
          "internalType": "address",
          "name": "owner",
          "type": "address"
        },
        {
          "indexed": true,
          "internalType": "address",
          "name": "spender",
          "type": "address"
        },
        {
          "indexed": false,
          "internalType": "uint256",
          "name": "value",
          "type": "uint256"
        }
      ],
      "name": "Approval",
      "type": "event"
    },
    {
      "anonymous": false,
      "inputs": [
        {
          "indexed": true,
          "internalType": "address",
          "name": "user",
          "type": "address"
        },
        {
          "indexed": false,
          "internalType": "uint256",
          "name": "amount",
          "type": "uint256"
        }
      ],
      "name": "FundsSentToFundingAddress",
      "type": "event"
    },
    {
      "anonymous": false,
      "inputs": [
        {
          "indexed": true,
          "internalType": "address",
          "name": "previousOwner",
          "type": "address"
        },
        {
          "indexed": true,
          "internalType": "address",
          "name": "newOwner",
          "type": "address"
        }
      ],
      "name": "OwnershipTransferred",
      "type": "event"
    },
    {
      "anonymous": false,
      "inputs": [
        {
          "indexed": true,
          "internalType": "address",
          "name": "user",
          "type": "address"
        },
        {
          "indexed": false,
          "internalType": "uint256",
          "name": "reward",
          "type": "uint256"
        }
      ],
      "name": "Rewards",
      "type": "event"
    },
    {
      "anonymous": false,
      "inputs": [
        {
          "indexed": true,
          "internalType": "address",
          "name": "from",
          "type": "address"
        },
        {
          "indexed": true,
          "internalType": "address",
          "name": "to",
          "type": "address"
        },
        {
          "indexed": false,
          "internalType": "uint256",
          "name": "value",
          "type": "uint256"
        }
      ],
      "name": "Transfer",
      "type": "event"
    },
    {
      "anonymous": false,
      "inputs": [
        {
          "indexed": true,
          "internalType": "address",
          "name": "user",
          "type": "address"
        },
        {
          "indexed": false,
          "internalType": "address",
          "name": "catnipPairAddress",
          "type": "address"
        }
      ],
      "name": "catnipPairAddressChanged",
      "type": "event"
    },
    {
      "anonymous": false,
      "inputs": [
        {
          "indexed": true,
          "internalType": "address",
          "name": "user",
          "type": "address"
        },
        {
          "indexed": false,
          "internalType": "uint256",
          "name": "amount",
          "type": "uint256"
        },
        {
          "indexed": false,
          "internalType": "uint256",
          "name": "totalLiquidityStaked",
          "type": "uint256"
        }
      ],
      "name": "catnipUniStaked",
      "type": "event"
    },
    {
      "anonymous": false,
      "inputs": [
        {
          "indexed": true,
          "internalType": "address",
          "name": "user",
          "type": "address"
        },
        {
          "indexed": false,
          "internalType": "uint256",
          "name": "amount",
          "type": "uint256"
        },
        {
          "indexed": false,
          "internalType": "uint256",
          "name": "totalLiquidityStaked",
          "type": "uint256"
        }
      ],
      "name": "catnipUniWithdrawn",
      "type": "event"
    },
    {
      "anonymous": false,
      "inputs": [
        {
          "indexed": true,
          "internalType": "address",
          "name": "user",
          "type": "address"
        },
        {
          "indexed": false,
          "internalType": "address",
          "name": "darkNyanPairAddress",
          "type": "address"
        }
      ],
      "name": "darkNyanPairAddressChanged",
      "type": "event"
    },
    {
      "anonymous": false,
      "inputs": [
        {
          "indexed": true,
          "internalType": "address",
          "name": "user",
          "type": "address"
        },
        {
          "indexed": false,
          "internalType": "uint256",
          "name": "amount",
          "type": "uint256"
        },
        {
          "indexed": false,
          "internalType": "uint256",
          "name": "totalLiquidityStaked",
          "type": "uint256"
        }
      ],
      "name": "darkNyanUniStaked",
      "type": "event"
    },
    {
      "anonymous": false,
      "inputs": [
        {
          "indexed": true,
          "internalType": "address",
          "name": "user",
          "type": "address"
        },
        {
          "indexed": false,
          "internalType": "uint256",
          "name": "amount",
          "type": "uint256"
        },
        {
          "indexed": false,
          "internalType": "uint256",
          "name": "totalLiquidityStaked",
          "type": "uint256"
        }
      ],
      "name": "darkNyanUniWithdrawn",
      "type": "event"
    },
    {
      "anonymous": false,
      "inputs": [
        {
          "indexed": true,
          "internalType": "address",
          "name": "user",
          "type": "address"
        },
        {
          "indexed": false,
          "internalType": "uint256",
          "name": "difficulty",
          "type": "uint256"
        }
      ],
      "name": "difficultyChanged",
      "type": "event"
    },
    {
      "anonymous": false,
      "inputs": [
        {
          "indexed": true,
          "internalType": "address",
          "name": "user",
          "type": "address"
        },
        {
          "indexed": false,
          "internalType": "address",
          "name": "votingAddress",
          "type": "address"
        }
      ],
      "name": "votingAddressChanged",
      "type": "event"
    },
    {
      "inputs": [
        {
          "internalType": "address",
          "name": "owner",
          "type": "address"
        },
        {
          "internalType": "address",
          "name": "spender",
          "type": "address"
        }
      ],
      "name": "allowance",
      "outputs": [
        {
          "internalType": "uint256",
          "name": "",
          "type": "uint256"
        }
      ],
      "stateMutability": "view",
      "type": "function",
      "constant": true
    },
    {
      "inputs": [
        {
          "internalType": "address",
          "name": "spender",
          "type": "address"
        },
        {
          "internalType": "uint256",
          "name": "amount",
          "type": "uint256"
        }
      ],
      "name": "approve",
      "outputs": [
        {
          "internalType": "bool",
          "name": "",
          "type": "bool"
        }
      ],
      "stateMutability": "nonpayable",
      "type": "function"
    },
    {
      "inputs": [
        {
          "internalType": "address",
          "name": "account",
          "type": "address"
        }
      ],
      "name": "balanceOf",
      "outputs": [
        {
          "internalType": "uint256",
          "name": "",
          "type": "uint256"
        }
      ],
      "stateMutability": "view",
      "type": "function",
      "constant": true
    },
    {
      "inputs": [],
      "name": "catnipUniswapV2Pair",
      "outputs": [
        {
          "internalType": "address",
          "name": "",
          "type": "address"
        }
      ],
      "stateMutability": "view",
      "type": "function",
      "constant": true
    },
    {
      "inputs": [],
      "name": "darkNyanUniswapV2Pair",
      "outputs": [
        {
          "internalType": "address",
          "name": "",
          "type": "address"
        }
      ],
      "stateMutability": "view",
      "type": "function",
      "constant": true
    },
    {
      "inputs": [],
      "name": "decimals",
      "outputs": [
        {
          "internalType": "uint8",
          "name": "",
          "type": "uint8"
        }
      ],
      "stateMutability": "view",
      "type": "function",
      "constant": true
    },
    {
      "inputs": [
        {
          "internalType": "address",
          "name": "spender",
          "type": "address"
        },
        {
          "internalType": "uint256",
          "name": "subtractedValue",
          "type": "uint256"
        }
      ],
      "name": "decreaseAllowance",
      "outputs": [
        {
          "internalType": "bool",
          "name": "",
          "type": "bool"
        }
      ],
      "stateMutability": "nonpayable",
      "type": "function"
    },
    {
      "inputs": [],
      "name": "fundVotingAddress",
      "outputs": [
        {
          "internalType": "address",
          "name": "",
          "type": "address"
        }
      ],
      "stateMutability": "view",
      "type": "function",
      "constant": true
    },
    {
      "inputs": [
        {
          "internalType": "address",
          "name": "spender",
          "type": "address"
        },
        {
          "internalType": "uint256",
          "name": "addedValue",
          "type": "uint256"
        }
      ],
      "name": "increaseAllowance",
      "outputs": [
        {
          "internalType": "bool",
          "name": "",
          "type": "bool"
        }
      ],
      "stateMutability": "nonpayable",
      "type": "function"
    },
    {
      "inputs": [],
      "name": "isSendingFunds",
      "outputs": [
        {
          "internalType": "bool",
          "name": "",
          "type": "bool"
        }
      ],
      "stateMutability": "view",
      "type": "function",
      "constant": true
    },
    {
      "inputs": [],
      "name": "liquidityMultiplier",
      "outputs": [
        {
          "internalType": "uint256",
          "name": "",
          "type": "uint256"
        }
      ],
      "stateMutability": "view",
      "type": "function",
      "constant": true
    },
    {
      "inputs": [],
      "name": "miningDifficulty",
      "outputs": [
        {
          "internalType": "uint256",
          "name": "",
          "type": "uint256"
        }
      ],
      "stateMutability": "view",
      "type": "function",
      "constant": true
    },
    {
      "inputs": [],
      "name": "name",
      "outputs": [
        {
          "internalType": "string",
          "name": "",
          "type": "string"
        }
      ],
      "stateMutability": "view",
      "type": "function",
      "constant": true
    },
    {
      "inputs": [],
      "name": "symbol",
      "outputs": [
        {
          "internalType": "string",
          "name": "",
          "type": "string"
        }
      ],
      "stateMutability": "view",
      "type": "function",
      "constant": true
    },
    {
      "inputs": [],
      "name": "totalSupply",
      "outputs": [
        {
          "internalType": "uint256",
          "name": "",
          "type": "uint256"
        }
      ],
      "stateMutability": "view",
      "type": "function",
      "constant": true
    },
    {
      "inputs": [
        {
          "internalType": "address",
          "name": "recipient",
          "type": "address"
        },
        {
          "internalType": "uint256",
          "name": "amount",
          "type": "uint256"
        }
      ],
      "name": "transfer",
      "outputs": [
        {
          "internalType": "bool",
          "name": "",
          "type": "bool"
        }
      ],
      "stateMutability": "nonpayable",
      "type": "function"
    },
    {
      "inputs": [
        {
          "internalType": "address",
          "name": "sender",
          "type": "address"
        },
        {
          "internalType": "address",
          "name": "recipient",
          "type": "address"
        },
        {
          "internalType": "uint256",
          "name": "amount",
          "type": "uint256"
        }
      ],
      "name": "transferFrom",
      "outputs": [
        {
          "internalType": "bool",
          "name": "",
          "type": "bool"
        }
      ],
      "stateMutability": "nonpayable",
      "type": "function"
    },
    {
      "inputs": [
        {
          "internalType": "address",
          "name": "newOwner",
          "type": "address"
        }
      ],
      "name": "transferOwnership",
      "outputs": [],
      "stateMutability": "nonpayable",
      "type": "function"
    },
    {
      "inputs": [
        {
          "internalType": "address",
          "name": "_account",
          "type": "address"
        }
      ],
      "name": "setVotingAddress",
      "outputs": [],
      "stateMutability": "nonpayable",
      "type": "function"
    },
    {
      "inputs": [
        {
          "internalType": "address",
          "name": "_uniV2address",
          "type": "address"
        }
      ],
      "name": "setCatnipPairAddress",
      "outputs": [],
      "stateMutability": "nonpayable",
      "type": "function"
    },
    {
      "inputs": [
        {
          "internalType": "address",
          "name": "_uniV2address",
          "type": "address"
        }
      ],
      "name": "setdarkNyanPairAddress",
      "outputs": [],
      "stateMutability": "nonpayable",
      "type": "function"
    },
    {
      "inputs": [
        {
          "internalType": "uint256",
          "name": "amount",
          "type": "uint256"
        }
      ],
      "name": "setMiningDifficulty",
      "outputs": [],
      "stateMutability": "nonpayable",
      "type": "function"
    },
    {
      "inputs": [
        {
          "internalType": "uint256",
          "name": "amount",
          "type": "uint256"
        }
      ],
      "name": "stakeCatnipUni",
      "outputs": [],
      "stateMutability": "nonpayable",
      "type": "function"
    },
    {
      "inputs": [
        {
          "internalType": "uint256",
          "name": "amount",
          "type": "uint256"
        }
      ],
      "name": "withdrawCatnipUni",
      "outputs": [],
      "stateMutability": "nonpayable",
      "type": "function"
    },
    {
      "inputs": [
        {
          "internalType": "uint256",
          "name": "amount",
          "type": "uint256"
        }
      ],
      "name": "stakeDarkNyanUni",
      "outputs": [],
      "stateMutability": "nonpayable",
      "type": "function"
    },
    {
      "inputs": [
        {
          "internalType": "uint256",
          "name": "amount",
          "type": "uint256"
        }
      ],
      "name": "withdrawDarkNyanUni",
      "outputs": [],
      "stateMutability": "nonpayable",
      "type": "function"
    },
    {
      "inputs": [
        {
          "internalType": "address",
          "name": "_account",
          "type": "address"
        }
      ],
      "name": "getNipUniStakeAmount",
      "outputs": [
        {
          "internalType": "uint256",
          "name": "",
          "type": "uint256"
        }
      ],
      "stateMutability": "view",
      "type": "function",
      "constant": true
    },
    {
      "inputs": [
        {
          "internalType": "address",
          "name": "_account",
          "type": "address"
        }
      ],
      "name": "getDNyanUniStakeAmount",
      "outputs": [
        {
          "internalType": "uint256",
          "name": "",
          "type": "uint256"
        }
      ],
      "stateMutability": "view",
      "type": "function",
      "constant": true
    },
    {
      "inputs": [
        {
          "internalType": "address",
          "name": "_account",
          "type": "address"
        }
      ],
      "name": "myRewardsBalance",
      "outputs": [
        {
          "internalType": "uint256",
          "name": "",
          "type": "uint256"
        }
      ],
      "stateMutability": "view",
      "type": "function",
      "constant": true
    },
    {
      "inputs": [],
      "name": "getReward",
      "outputs": [],
      "stateMutability": "nonpayable",
      "type": "function"
    },
    {
      "inputs": [],
      "name": "toggleFundsTransfer",
      "outputs": [],
      "stateMutability": "nonpayable",
      "type": "function"
    },
    {
      "inputs": [
        {
          "internalType": "uint256",
          "name": "amount",
          "type": "uint256"
        }
      ],
      "name": "sendDarkNyanToFund",
      "outputs": [],
      "stateMutability": "nonpayable",
      "type": "function"
    }
  ],
  "bytecode": "0x60806040526000600860146101000a81548160ff0219169083151502179055506046600a55619c40600b556040518060400160405280600881526020017f6461726b4e59414e0000000000000000000000000000000000000000000000008152506040518060400160405280600581526020017f644e59414e0000000000000000000000000000000000000000000000000000008152508160039080519060200190620000ae92919062000465565b508060049080519060200190620000c792919062000465565b506012600560006101000a81548160ff021916908360ff160217905550505033600760006101000a81548173ffffffffffffffffffffffffffffffffffffffff021916908373ffffffffffffffffffffffffffffffffffffffff160217905550600060649050620001603362000154670de0b6b3a7640000846200016e60201b62003a041790919060201c565b620001f960201b60201c565b436009819055505062000514565b600080831415620001835760009050620001f3565b60008284029050828482816200019557fe5b0414620001ee576040517f08c379a0000000000000000000000000000000000000000000000000000000008152600401808060200182810382526021815260200180620047416021913960400191505060405180910390fd5b809150505b92915050565b600073ffffffffffffffffffffffffffffffffffffffff168273ffffffffffffffffffffffffffffffffffffffff1614156200029d576040517f08c379a000000000000000000000000000000000000000000000000000000000815260040180806020018281038252601f8152602001807f45524332303a206d696e7420746f20746865207a65726f20616464726573730081525060200191505060405180910390fd5b620002b160008383620003d760201b60201c565b620002cd81600254620003dc60201b620039321790919060201c565b6002819055506200032b816000808573ffffffffffffffffffffffffffffffffffffffff1673ffffffffffffffffffffffffffffffffffffffff16815260200190815260200160002054620003dc60201b620039321790919060201c565b6000808473ffffffffffffffffffffffffffffffffffffffff1673ffffffffffffffffffffffffffffffffffffffff168152602001908152602001600020819055508173ffffffffffffffffffffffffffffffffffffffff16600073ffffffffffffffffffffffffffffffffffffffff167fddf252ad1be2c89b69c2b068fc378daa952ba7f163c4a11628f55a4df523b3ef836040518082815260200191505060405180910390a35050565b505050565b6000808284019050838110156200045b576040517f08c379a000000000000000000000000000000000000000000000000000000000815260040180806020018281038252601b8152602001807f536166654d6174683a206164646974696f6e206f766572666c6f77000000000081525060200191505060405180910390fd5b8091505092915050565b828054600181600116156101000203166002900490600052602060002090601f016020900481019282601f10620004a857805160ff1916838001178555620004d9565b82800160010185558215620004d9579182015b82811115620004d8578251825591602001919060010190620004bb565b5b509050620004e89190620004ec565b5090565b6200051191905b808211156200050d576000816000905550600101620004f3565b5090565b90565b61421d80620005246000396000f3fe608060405234801561001057600080fd5b50600436106101ef5760003560e01c806395d89b411161010f578063b6541945116100a2578063ea15de0511610071578063ea15de05146109a8578063ee02b3c714610a00578063f2fde38b14610a0a578063f571e00e14610a4e576101ef565b8063b6541945146108a0578063d7305bb8146108be578063dd62ed3e146108ec578063e10a1d7914610964576101ef565b8063a9059cbb116100de578063a9059cbb146107a4578063b40b9bb61461080a578063b419ef0214610828578063b41abf7d14610872576101ef565b806395d89b41146106355780639fd3adf6146106b8578063a457c2d7146106e6578063a57306dc1461074c576101ef565b806323b872dd116101875780635981771711610156578063598177171461052757806370a082311461056b5780637a6cfcab146105c35780637b12d42614610607576101ef565b806323b872dd1461040d578063313ce5671461049357806339509351146104b75780633d18b9121461051d576101ef565b8063095ea7b3116101c3578063095ea7b3146103115780630a4cb9391461037757806315b23901146103a557806318160ddd146103ef576101ef565b80624f3264146101f4578063069c8a041461023e57806306fdde031461026057806307a7a342146102e3575b600080fd5b6101fc610aa6565b604051808273ffffffffffffffffffffffffffffffffffffffff1673ffffffffffffffffffffffffffffffffffffffff16815260200191505060405180910390f35b610246610acc565b604051808215151515815260200191505060405180910390f35b610268610adf565b6040518080602001828103825283818151815260200191508051906020019080838360005b838110156102a857808201518184015260208101905061028d565b50505050905090810190601f1680156102d55780820380516001836020036101000a031916815260200191505b509250505060405180910390f35b61030f600480360360208110156102f957600080fd5b8101908080359060200190929190505050610b81565b005b61035d6004803603604081101561032757600080fd5b81019080803573ffffffffffffffffffffffffffffffffffffffff16906020019092919080359060200190929190505050610c40565b604051808215151515815260200191505060405180910390f35b6103a36004803603602081101561038d57600080fd5b8101908080359060200190929190505050610c5e565b005b6103ad610d12565b604051808273ffffffffffffffffffffffffffffffffffffffff1673ffffffffffffffffffffffffffffffffffffffff16815260200191505060405180910390f35b6103f7610d38565b6040518082815260200191505060405180910390f35b6104796004803603606081101561042357600080fd5b81019080803573ffffffffffffffffffffffffffffffffffffffff169060200190929190803573ffffffffffffffffffffffffffffffffffffffff16906020019092919080359060200190929190505050610d42565b604051808215151515815260200191505060405180910390f35b61049b610e1b565b604051808260ff1660ff16815260200191505060405180910390f35b610503600480360360408110156104cd57600080fd5b81019080803573ffffffffffffffffffffffffffffffffffffffff16906020019092919080359060200190929190505050610e32565b604051808215151515815260200191505060405180910390f35b610525610ee5565b005b6105696004803603602081101561053d57600080fd5b81019080803573ffffffffffffffffffffffffffffffffffffffff16906020019092919050505061138d565b005b6105ad6004803603602081101561058157600080fd5b81019080803573ffffffffffffffffffffffffffffffffffffffff16906020019092919050505061152a565b6040518082815260200191505060405180910390f35b610605600480360360208110156105d957600080fd5b81019080803573ffffffffffffffffffffffffffffffffffffffff169060200190929190505050611572565b005b6106336004803603602081101561061d57600080fd5b81019080803590602001909291905050506116ac565b005b61063d611b80565b6040518080602001828103825283818151815260200191508051906020019080838360005b8381101561067d578082015181840152602081019050610662565b50505050905090810190601f1680156106aa5780820380516001836020036101000a031916815260200191505b509250505060405180910390f35b6106e4600480360360208110156106ce57600080fd5b8101908080359060200190929190505050611c22565b005b610732600480360360408110156106fc57600080fd5b81019080803573ffffffffffffffffffffffffffffffffffffffff169060200190929190803590602001909291905050506120f4565b604051808215151515815260200191505060405180910390f35b61078e6004803603602081101561076257600080fd5b81019080803573ffffffffffffffffffffffffffffffffffffffff1690602001909291905050506121c1565b6040518082815260200191505060405180910390f35b6107f0600480360360408110156107ba57600080fd5b81019080803573ffffffffffffffffffffffffffffffffffffffff1690602001909291908035906020019092919050505061242f565b604051808215151515815260200191505060405180910390f35b61081261244d565b6040518082815260200191505060405180910390f35b610830612453565b604051808273ffffffffffffffffffffffffffffffffffffffff1673ffffffffffffffffffffffffffffffffffffffff16815260200191505060405180910390f35b61089e6004803603602081101561088857600080fd5b8101908080359060200190929190505050612479565b005b6108a861294b565b6040518082815260200191505060405180910390f35b6108ea600480360360208110156108d457600080fd5b8101908080359060200190929190505050612951565b005b61094e6004803603604081101561090257600080fd5b81019080803573ffffffffffffffffffffffffffffffffffffffff169060200190929190803573ffffffffffffffffffffffffffffffffffffffff169060200190929190505050612e67565b6040518082815260200191505060405180910390f35b6109a66004803603602081101561097a57600080fd5b81019080803573ffffffffffffffffffffffffffffffffffffffff169060200190929190505050612eee565b005b6109ea600480360360208110156109be57600080fd5b81019080803573ffffffffffffffffffffffffffffffffffffffff16906020019092919050505061308b565b6040518082815260200191505060405180910390f35b610a086130d7565b005b610a4c60048036036020811015610a2057600080fd5b81019080803573ffffffffffffffffffffffffffffffffffffffff16906020019092919050505061315d565b005b610a9060048036036020811015610a6457600080fd5b81019080803573ffffffffffffffffffffffffffffffffffffffff1690602001909291905050506132ae565b6040518082815260200191505060405180910390f35b601160009054906101000a900473ffffffffffffffffffffffffffffffffffffffff1681565b600860149054906101000a900460ff1681565b606060038054600181600116156101000203166002900480601f016020809104026020016040519081016040528092919081815260200182805460018160011615610100020316600290048015610b775780601f10610b4c57610100808354040283529160200191610b77565b820191906000526020600020905b815481529060010190602001808311610b5a57829003601f168201915b5050505050905090565b600860149054906101000a900460ff16610b9a57610c3d565b43600981905550610bee600860009054906101000a900473ffffffffffffffffffffffffffffffffffffffff16823073ffffffffffffffffffffffffffffffffffffffff166132fa9092919063ffffffff16565b3373ffffffffffffffffffffffffffffffffffffffff167f9d7222da2cc210705445b483f242802ea957473cdd2257aacf02466f2e663482826040518082815260200191505060405180910390a25b50565b6000610c54610c4d6133b2565b84846133ba565b6001905092915050565b600760009054906101000a900473ffffffffffffffffffffffffffffffffffffffff1673ffffffffffffffffffffffffffffffffffffffff163373ffffffffffffffffffffffffffffffffffffffff1614610cb857600080fd5b80600b819055503373ffffffffffffffffffffffffffffffffffffffff167f694487741fda3a05899e5ccf8286720c2e1152708453a1a35c016249befc5fcd600b546040518082815260200191505060405180910390a250565b600860009054906101000a900473ffffffffffffffffffffffffffffffffffffffff1681565b6000600254905090565b6000610d4f8484846135b1565b610e1084610d5b6133b2565b610e0b8560405180606001604052806028815260200161412860289139600160008b73ffffffffffffffffffffffffffffffffffffffff1673ffffffffffffffffffffffffffffffffffffffff1681526020019081526020016000206000610dc16133b2565b73ffffffffffffffffffffffffffffffffffffffff1673ffffffffffffffffffffffffffffffffffffffff168152602001908152602001600020546138729092919063ffffffff16565b6133ba565b600190509392505050565b6000600560009054906101000a900460ff16905090565b6000610edb610e3f6133b2565b84610ed68560016000610e506133b2565b73ffffffffffffffffffffffffffffffffffffffff1673ffffffffffffffffffffffffffffffffffffffff16815260200190815260200160002060008973ffffffffffffffffffffffffffffffffffffffff1673ffffffffffffffffffffffffffffffffffffffff1681526020019081526020016000205461393290919063ffffffff16565b6133ba565b6001905092915050565b33600080600660008473ffffffffffffffffffffffffffffffffffffffff1673ffffffffffffffffffffffffffffffffffffffff168152602001908152602001600020600301541115610f8357600a54600660008473ffffffffffffffffffffffffffffffffffffffff1673ffffffffffffffffffffffffffffffffffffffff1681526020019081526020016000206003015481610f7f57fe5b0490505b600660008373ffffffffffffffffffffffffffffffffffffffff1673ffffffffffffffffffffffffffffffffffffffff16815260200190815260200160002060000154431115611257576000611024600660008573ffffffffffffffffffffffffffffffffffffffff1673ffffffffffffffffffffffffffffffffffffffff16815260200190815260200160002060000154436139ba90919063ffffffff16565b90506000600660008573ffffffffffffffffffffffffffffffffffffffff1673ffffffffffffffffffffffffffffffffffffffff16815260200190815260200160002060020154111561117e57600b5461112f8261112185611113600660008a73ffffffffffffffffffffffffffffffffffffffff1673ffffffffffffffffffffffffffffffffffffffff16815260200190815260200160002060020154600660008b73ffffffffffffffffffffffffffffffffffffffff1673ffffffffffffffffffffffffffffffffffffffff1681526020019081526020016000206001015461393290919063ffffffff16565b61393290919063ffffffff16565b613a0490919063ffffffff16565b8161113657fe5b04600660008573ffffffffffffffffffffffffffffffffffffffff1673ffffffffffffffffffffffffffffffffffffffff168152602001908152602001600020600101819055505b43600660008573ffffffffffffffffffffffffffffffffffffffff1673ffffffffffffffffffffffffffffffffffffffff168152602001908152602001600020600001819055508273ffffffffffffffffffffffffffffffffffffffff167fc083a1647e3ee591bf42b82564ffb4d16fdbb26068f0080da911c8d8300fd84a600660008673ffffffffffffffffffffffffffffffffffffffff1673ffffffffffffffffffffffffffffffffffffffff168152602001908152602001600020600101546040518082815260200191505060405180910390a2505b6000600660003373ffffffffffffffffffffffffffffffffffffffff1673ffffffffffffffffffffffffffffffffffffffff1681526020019081526020016000206001015490506000600660003373ffffffffffffffffffffffffffffffffffffffff1673ffffffffffffffffffffffffffffffffffffffff1681526020019081526020016000206001018190555061130d33600a611300600885613a0490919063ffffffff16565b8161130757fe5b04613a8a565b6000600a611325600284613a0490919063ffffffff16565b8161132c57fe5b0490506113393082613a8a565b3373ffffffffffffffffffffffffffffffffffffffff167fc083a1647e3ee591bf42b82564ffb4d16fdbb26068f0080da911c8d8300fd84a836040518082815260200191505060405180910390a250505050565b600760009054906101000a900473ffffffffffffffffffffffffffffffffffffffff1673ffffffffffffffffffffffffffffffffffffffff163373ffffffffffffffffffffffffffffffffffffffff16146113e757600080fd5b80601160006101000a81548173ffffffffffffffffffffffffffffffffffffffff021916908373ffffffffffffffffffffffffffffffffffffffff160217905550601160009054906101000a900473ffffffffffffffffffffffffffffffffffffffff16601060006101000a81548173ffffffffffffffffffffffffffffffffffffffff021916908373ffffffffffffffffffffffffffffffffffffffff1602179055503373ffffffffffffffffffffffffffffffffffffffff167f10012a7cd512d5180f3040fd3e1eae0ac106b0c4b7d15dc80200c62d2526ed1a601160009054906101000a900473ffffffffffffffffffffffffffffffffffffffff16604051808273ffffffffffffffffffffffffffffffffffffffff1673ffffffffffffffffffffffffffffffffffffffff16815260200191505060405180910390a250565b60008060008373ffffffffffffffffffffffffffffffffffffffff1673ffffffffffffffffffffffffffffffffffffffff168152602001908152602001600020549050919050565b600760009054906101000a900473ffffffffffffffffffffffffffffffffffffffff1673ffffffffffffffffffffffffffffffffffffffff163373ffffffffffffffffffffffffffffffffffffffff16146115cc57600080fd5b80600860006101000a81548173ffffffffffffffffffffffffffffffffffffffff021916908373ffffffffffffffffffffffffffffffffffffffff1602179055503373ffffffffffffffffffffffffffffffffffffffff167f62a51664e003fa1af643b4857cc1abcee4cd6b54791027e0fbe33bc924e41eac600860009054906101000a900473ffffffffffffffffffffffffffffffffffffffff16604051808273ffffffffffffffffffffffffffffffffffffffff1673ffffffffffffffffffffffffffffffffffffffff16815260200191505060405180910390a250565b33600080600660008473ffffffffffffffffffffffffffffffffffffffff1673ffffffffffffffffffffffffffffffffffffffff16815260200190815260200160002060030154111561174a57600a54600660008473ffffffffffffffffffffffffffffffffffffffff1673ffffffffffffffffffffffffffffffffffffffff168152602001908152602001600020600301548161174657fe5b0490505b600660008373ffffffffffffffffffffffffffffffffffffffff1673ffffffffffffffffffffffffffffffffffffffff16815260200190815260200160002060000154431115611a1e5760006117eb600660008573ffffffffffffffffffffffffffffffffffffffff1673ffffffffffffffffffffffffffffffffffffffff16815260200190815260200160002060000154436139ba90919063ffffffff16565b90506000600660008573ffffffffffffffffffffffffffffffffffffffff1673ffffffffffffffffffffffffffffffffffffffff16815260200190815260200160002060020154111561194557600b546118f6826118e8856118da600660008a73ffffffffffffffffffffffffffffffffffffffff1673ffffffffffffffffffffffffffffffffffffffff16815260200190815260200160002060020154600660008b73ffffffffffffffffffffffffffffffffffffffff1673ffffffffffffffffffffffffffffffffffffffff1681526020019081526020016000206001015461393290919063ffffffff16565b61393290919063ffffffff16565b613a0490919063ffffffff16565b816118fd57fe5b04600660008573ffffffffffffffffffffffffffffffffffffffff1673ffffffffffffffffffffffffffffffffffffffff168152602001908152602001600020600101819055505b43600660008573ffffffffffffffffffffffffffffffffffffffff1673ffffffffffffffffffffffffffffffffffffffff168152602001908152602001600020600001819055508273ffffffffffffffffffffffffffffffffffffffff167fc083a1647e3ee591bf42b82564ffb4d16fdbb26068f0080da911c8d8300fd84a600660008673ffffffffffffffffffffffffffffffffffffffff1673ffffffffffffffffffffffffffffffffffffffff168152602001908152602001600020600101546040518082815260200191505060405180910390a2505b611a6d333085601060009054906101000a900473ffffffffffffffffffffffffffffffffffffffff1673ffffffffffffffffffffffffffffffffffffffff16613c51909392919063ffffffff16565b611ac283600660003373ffffffffffffffffffffffffffffffffffffffff1673ffffffffffffffffffffffffffffffffffffffff1681526020019081526020016000206003015461393290919063ffffffff16565b600660003373ffffffffffffffffffffffffffffffffffffffff1673ffffffffffffffffffffffffffffffffffffffff16815260200190815260200160002060030181905550611b1d8360125461393290919063ffffffff16565b6012819055503373ffffffffffffffffffffffffffffffffffffffff167ffc9142c81f1618800bcc9f942bc007c58f2f00975089d7aa9c01ffa587b9263984601254604051808381526020018281526020019250505060405180910390a2505050565b606060048054600181600116156101000203166002900480601f016020809104026020016040519081016040528092919081815260200182805460018160011615610100020316600290048015611c185780601f10611bed57610100808354040283529160200191611c18565b820191906000526020600020905b815481529060010190602001808311611bfb57829003601f168201915b5050505050905090565b33600080600660008473ffffffffffffffffffffffffffffffffffffffff1673ffffffffffffffffffffffffffffffffffffffff168152602001908152602001600020600301541115611cc057600a54600660008473ffffffffffffffffffffffffffffffffffffffff1673ffffffffffffffffffffffffffffffffffffffff1681526020019081526020016000206003015481611cbc57fe5b0490505b600660008373ffffffffffffffffffffffffffffffffffffffff1673ffffffffffffffffffffffffffffffffffffffff16815260200190815260200160002060000154431115611f94576000611d61600660008573ffffffffffffffffffffffffffffffffffffffff1673ffffffffffffffffffffffffffffffffffffffff16815260200190815260200160002060000154436139ba90919063ffffffff16565b90506000600660008573ffffffffffffffffffffffffffffffffffffffff1673ffffffffffffffffffffffffffffffffffffffff168152602001908152602001600020600201541115611ebb57600b54611e6c82611e5e85611e50600660008a73ffffffffffffffffffffffffffffffffffffffff1673ffffffffffffffffffffffffffffffffffffffff16815260200190815260200160002060020154600660008b73ffffffffffffffffffffffffffffffffffffffff1673ffffffffffffffffffffffffffffffffffffffff1681526020019081526020016000206001015461393290919063ffffffff16565b61393290919063ffffffff16565b613a0490919063ffffffff16565b81611e7357fe5b04600660008573ffffffffffffffffffffffffffffffffffffffff1673ffffffffffffffffffffffffffffffffffffffff168152602001908152602001600020600101819055505b43600660008573ffffffffffffffffffffffffffffffffffffffff1673ffffffffffffffffffffffffffffffffffffffff168152602001908152602001600020600001819055508273ffffffffffffffffffffffffffffffffffffffff167fc083a1647e3ee591bf42b82564ffb4d16fdbb26068f0080da911c8d8300fd84a600660008673ffffffffffffffffffffffffffffffffffffffff1673ffffffffffffffffffffffffffffffffffffffff168152602001908152602001600020600101546040518082815260200191505060405180910390a2505b611fe13384601060009054906101000a900473ffffffffffffffffffffffffffffffffffffffff1673ffffffffffffffffffffffffffffffffffffffff166132fa9092919063ffffffff16565b61203683600660003373ffffffffffffffffffffffffffffffffffffffff1673ffffffffffffffffffffffffffffffffffffffff168152602001908152602001600020600301546139ba90919063ffffffff16565b600660003373ffffffffffffffffffffffffffffffffffffffff1673ffffffffffffffffffffffffffffffffffffffff16815260200190815260200160002060030181905550612091836012546139ba90919063ffffffff16565b6012819055503373ffffffffffffffffffffffffffffffffffffffff167f237bde176a926aa56330ff5cf7e17dcf313db083e6d8eb467d9af0238a8cdc8784601254604051808381526020018281526020019250505060405180910390a2505050565b60006121b76121016133b2565b846121b2856040518060600160405280602581526020016141c3602591396001600061212b6133b2565b73ffffffffffffffffffffffffffffffffffffffff1673ffffffffffffffffffffffffffffffffffffffff16815260200190815260200160002060008a73ffffffffffffffffffffffffffffffffffffffff1673ffffffffffffffffffffffffffffffffffffffff168152602001908152602001600020546138729092919063ffffffff16565b6133ba565b6001905092915050565b6000806000600660008573ffffffffffffffffffffffffffffffffffffffff1673ffffffffffffffffffffffffffffffffffffffff16815260200190815260200160002060030154111561226057600a54600660008573ffffffffffffffffffffffffffffffffffffffff1673ffffffffffffffffffffffffffffffffffffffff168152602001908152602001600020600301548161225c57fe5b0490505b600660008473ffffffffffffffffffffffffffffffffffffffff1673ffffffffffffffffffffffffffffffffffffffff16815260200190815260200160002060000154431115612428576000612301600660008673ffffffffffffffffffffffffffffffffffffffff1673ffffffffffffffffffffffffffffffffffffffff16815260200190815260200160002060000154436139ba90919063ffffffff16565b90506000600660008673ffffffffffffffffffffffffffffffffffffffff1673ffffffffffffffffffffffffffffffffffffffff16815260200190815260200160002060020154111561241d57600b5461240c826123fe856123f0600660008b73ffffffffffffffffffffffffffffffffffffffff1673ffffffffffffffffffffffffffffffffffffffff16815260200190815260200160002060020154600660008c73ffffffffffffffffffffffffffffffffffffffff1673ffffffffffffffffffffffffffffffffffffffff1681526020019081526020016000206001015461393290919063ffffffff16565b61393290919063ffffffff16565b613a0490919063ffffffff16565b8161241357fe5b049250505061242a565b60009250505061242a565b505b919050565b600061244361243c6133b2565b84846135b1565b6001905092915050565b600b5481565b600f60009054906101000a900473ffffffffffffffffffffffffffffffffffffffff1681565b33600080600660008473ffffffffffffffffffffffffffffffffffffffff1673ffffffffffffffffffffffffffffffffffffffff16815260200190815260200160002060030154111561251757600a54600660008473ffffffffffffffffffffffffffffffffffffffff1673ffffffffffffffffffffffffffffffffffffffff168152602001908152602001600020600301548161251357fe5b0490505b600660008373ffffffffffffffffffffffffffffffffffffffff1673ffffffffffffffffffffffffffffffffffffffff168152602001908152602001600020600001544311156127eb5760006125b8600660008573ffffffffffffffffffffffffffffffffffffffff1673ffffffffffffffffffffffffffffffffffffffff16815260200190815260200160002060000154436139ba90919063ffffffff16565b90506000600660008573ffffffffffffffffffffffffffffffffffffffff1673ffffffffffffffffffffffffffffffffffffffff16815260200190815260200160002060020154111561271257600b546126c3826126b5856126a7600660008a73ffffffffffffffffffffffffffffffffffffffff1673ffffffffffffffffffffffffffffffffffffffff16815260200190815260200160002060020154600660008b73ffffffffffffffffffffffffffffffffffffffff1673ffffffffffffffffffffffffffffffffffffffff1681526020019081526020016000206001015461393290919063ffffffff16565b61393290919063ffffffff16565b613a0490919063ffffffff16565b816126ca57fe5b04600660008573ffffffffffffffffffffffffffffffffffffffff1673ffffffffffffffffffffffffffffffffffffffff168152602001908152602001600020600101819055505b43600660008573ffffffffffffffffffffffffffffffffffffffff1673ffffffffffffffffffffffffffffffffffffffff168152602001908152602001600020600001819055508273ffffffffffffffffffffffffffffffffffffffff167fc083a1647e3ee591bf42b82564ffb4d16fdbb26068f0080da911c8d8300fd84a600660008673ffffffffffffffffffffffffffffffffffffffff1673ffffffffffffffffffffffffffffffffffffffff168152602001908152602001600020600101546040518082815260200191505060405180910390a2505b6128383384600e60009054906101000a900473ffffffffffffffffffffffffffffffffffffffff1673ffffffffffffffffffffffffffffffffffffffff166132fa9092919063ffffffff16565b61288d83600660003373ffffffffffffffffffffffffffffffffffffffff1673ffffffffffffffffffffffffffffffffffffffff168152602001908152602001600020600201546139ba90919063ffffffff16565b600660003373ffffffffffffffffffffffffffffffffffffffff1673ffffffffffffffffffffffffffffffffffffffff168152602001908152602001600020600201819055506128e8836012546139ba90919063ffffffff16565b6012819055503373ffffffffffffffffffffffffffffffffffffffff167f9173d21987c1cbb3749be6b0d5308a78c4f6447f474b94c70f15e8b5d2923d7384601254604051808381526020018281526020019250505060405180910390a2505050565b600a5481565b33600080600660008473ffffffffffffffffffffffffffffffffffffffff1673ffffffffffffffffffffffffffffffffffffffff1681526020019081526020016000206003015411156129ef57600a54600660008473ffffffffffffffffffffffffffffffffffffffff1673ffffffffffffffffffffffffffffffffffffffff16815260200190815260200160002060030154816129eb57fe5b0490505b600660008373ffffffffffffffffffffffffffffffffffffffff1673ffffffffffffffffffffffffffffffffffffffff16815260200190815260200160002060000154431115612cc3576000612a90600660008573ffffffffffffffffffffffffffffffffffffffff1673ffffffffffffffffffffffffffffffffffffffff16815260200190815260200160002060000154436139ba90919063ffffffff16565b90506000600660008573ffffffffffffffffffffffffffffffffffffffff1673ffffffffffffffffffffffffffffffffffffffff168152602001908152602001600020600201541115612bea57600b54612b9b82612b8d85612b7f600660008a73ffffffffffffffffffffffffffffffffffffffff1673ffffffffffffffffffffffffffffffffffffffff16815260200190815260200160002060020154600660008b73ffffffffffffffffffffffffffffffffffffffff1673ffffffffffffffffffffffffffffffffffffffff1681526020019081526020016000206001015461393290919063ffffffff16565b61393290919063ffffffff16565b613a0490919063ffffffff16565b81612ba257fe5b04600660008573ffffffffffffffffffffffffffffffffffffffff1673ffffffffffffffffffffffffffffffffffffffff168152602001908152602001600020600101819055505b43600660008573ffffffffffffffffffffffffffffffffffffffff1673ffffffffffffffffffffffffffffffffffffffff168152602001908152602001600020600001819055508273ffffffffffffffffffffffffffffffffffffffff167fc083a1647e3ee591bf42b82564ffb4d16fdbb26068f0080da911c8d8300fd84a600660008673ffffffffffffffffffffffffffffffffffffffff1673ffffffffffffffffffffffffffffffffffffffff168152602001908152602001600020600101546040518082815260200191505060405180910390a2505b612d12333085600e60009054906101000a900473ffffffffffffffffffffffffffffffffffffffff1673ffffffffffffffffffffffffffffffffffffffff16613c51909392919063ffffffff16565b612d6783600660003373ffffffffffffffffffffffffffffffffffffffff1673ffffffffffffffffffffffffffffffffffffffff1681526020019081526020016000206002015461393290919063ffffffff16565b600660003373ffffffffffffffffffffffffffffffffffffffff1673ffffffffffffffffffffffffffffffffffffffff16815260200190815260200160002060020181905550612dc28360125461393290919063ffffffff16565b6012819055503373ffffffffffffffffffffffffffffffffffffffff167fe9b6ba13f7d227e94ee65b85690f4cb401230970a209f20f3d9f287b46262a74600660003373ffffffffffffffffffffffffffffffffffffffff1673ffffffffffffffffffffffffffffffffffffffff16815260200190815260200160002060020154601254604051808381526020018281526020019250505060405180910390a2505050565b6000600160008473ffffffffffffffffffffffffffffffffffffffff1673ffffffffffffffffffffffffffffffffffffffff16815260200190815260200160002060008373ffffffffffffffffffffffffffffffffffffffff1673ffffffffffffffffffffffffffffffffffffffff16815260200190815260200160002054905092915050565b600760009054906101000a900473ffffffffffffffffffffffffffffffffffffffff1673ffffffffffffffffffffffffffffffffffffffff163373ffffffffffffffffffffffffffffffffffffffff1614612f4857600080fd5b80600f60006101000a81548173ffffffffffffffffffffffffffffffffffffffff021916908373ffffffffffffffffffffffffffffffffffffffff160217905550600f60009054906101000a900473ffffffffffffffffffffffffffffffffffffffff16600e60006101000a81548173ffffffffffffffffffffffffffffffffffffffff021916908373ffffffffffffffffffffffffffffffffffffffff1602179055503373ffffffffffffffffffffffffffffffffffffffff167f4265d0a7b0f56a8e5b2509cb51565bff0fcd96cb80ecbdbc6fd1623b5b8c65d8600f60009054906101000a900473ffffffffffffffffffffffffffffffffffffffff16604051808273ffffffffffffffffffffffffffffffffffffffff1673ffffffffffffffffffffffffffffffffffffffff16815260200191505060405180910390a250565b6000600660008373ffffffffffffffffffffffffffffffffffffffff1673ffffffffffffffffffffffffffffffffffffffff168152602001908152602001600020600301549050919050565b600760009054906101000a900473ffffffffffffffffffffffffffffffffffffffff1673ffffffffffffffffffffffffffffffffffffffff163373ffffffffffffffffffffffffffffffffffffffff161461313157600080fd5b600860149054906101000a900460ff1615600860146101000a81548160ff021916908315150217905550565b600760009054906101000a900473ffffffffffffffffffffffffffffffffffffffff1673ffffffffffffffffffffffffffffffffffffffff163373ffffffffffffffffffffffffffffffffffffffff16146131b757600080fd5b600073ffffffffffffffffffffffffffffffffffffffff168173ffffffffffffffffffffffffffffffffffffffff1614156131ee57fe5b8073ffffffffffffffffffffffffffffffffffffffff16600760009054906101000a900473ffffffffffffffffffffffffffffffffffffffff1673ffffffffffffffffffffffffffffffffffffffff167f8be0079c531659141344cd1fd0a4f28419497f9722a3daafe3b4186f6b6457e060405160405180910390a380600760006101000a81548173ffffffffffffffffffffffffffffffffffffffff021916908373ffffffffffffffffffffffffffffffffffffffff16021790555050565b6000600660008373ffffffffffffffffffffffffffffffffffffffff1673ffffffffffffffffffffffffffffffffffffffff168152602001908152602001600020600201549050919050565b6133ad8363a9059cbb60e01b8484604051602401808373ffffffffffffffffffffffffffffffffffffffff1673ffffffffffffffffffffffffffffffffffffffff16815260200182815260200192505050604051602081830303815290604052907bffffffffffffffffffffffffffffffffffffffffffffffffffffffff19166020820180517bffffffffffffffffffffffffffffffffffffffffffffffffffffffff8381831617835250505050613d3e565b505050565b600033905090565b600073ffffffffffffffffffffffffffffffffffffffff168373ffffffffffffffffffffffffffffffffffffffff161415613440576040517f08c379a00000000000000000000000000000000000000000000000000000000081526004018080602001828103825260248152602001806141756024913960400191505060405180910390fd5b600073ffffffffffffffffffffffffffffffffffffffff168273ffffffffffffffffffffffffffffffffffffffff1614156134c6576040517f08c379a00000000000000000000000000000000000000000000000000000000081526004018080602001828103825260228152602001806140bf6022913960400191505060405180910390fd5b80600160008573ffffffffffffffffffffffffffffffffffffffff1673ffffffffffffffffffffffffffffffffffffffff16815260200190815260200160002060008473ffffffffffffffffffffffffffffffffffffffff1673ffffffffffffffffffffffffffffffffffffffff168152602001908152602001600020819055508173ffffffffffffffffffffffffffffffffffffffff168373ffffffffffffffffffffffffffffffffffffffff167f8c5be1e5ebec7d5bd14f71427d1e84f3dd0314c0f7b2291e5b200ac8c7c3b925836040518082815260200191505060405180910390a3505050565b600073ffffffffffffffffffffffffffffffffffffffff168373ffffffffffffffffffffffffffffffffffffffff161415613637576040517f08c379a00000000000000000000000000000000000000000000000000000000081526004018080602001828103825260258152602001806141506025913960400191505060405180910390fd5b600073ffffffffffffffffffffffffffffffffffffffff168273ffffffffffffffffffffffffffffffffffffffff1614156136bd576040517f08c379a000000000000000000000000000000000000000000000000000000000815260040180806020018281038252602381526020018061409c6023913960400191505060405180910390fd5b6136c8838383613e2d565b613733816040518060600160405280602681526020016140e1602691396000808773ffffffffffffffffffffffffffffffffffffffff1673ffffffffffffffffffffffffffffffffffffffff168152602001908152602001600020546138729092919063ffffffff16565b6000808573ffffffffffffffffffffffffffffffffffffffff1673ffffffffffffffffffffffffffffffffffffffff168152602001908152602001600020819055506137c6816000808573ffffffffffffffffffffffffffffffffffffffff1673ffffffffffffffffffffffffffffffffffffffff1681526020019081526020016000205461393290919063ffffffff16565b6000808473ffffffffffffffffffffffffffffffffffffffff1673ffffffffffffffffffffffffffffffffffffffff168152602001908152602001600020819055508173ffffffffffffffffffffffffffffffffffffffff168373ffffffffffffffffffffffffffffffffffffffff167fddf252ad1be2c89b69c2b068fc378daa952ba7f163c4a11628f55a4df523b3ef836040518082815260200191505060405180910390a3505050565b600083831115829061391f576040517f08c379a00000000000000000000000000000000000000000000000000000000081526004018080602001828103825283818151815260200191508051906020019080838360005b838110156138e45780820151818401526020810190506138c9565b50505050905090810190601f1680156139115780820380516001836020036101000a031916815260200191505b509250505060405180910390fd5b5060008385039050809150509392505050565b6000808284019050838110156139b0576040517f08c379a000000000000000000000000000000000000000000000000000000000815260040180806020018281038252601b8152602001807f536166654d6174683a206164646974696f6e206f766572666c6f77000000000081525060200191505060405180910390fd5b8091505092915050565b60006139fc83836040518060400160405280601e81526020017f536166654d6174683a207375627472616374696f6e206f766572666c6f770000815250613872565b905092915050565b600080831415613a175760009050613a84565b6000828402905082848281613a2857fe5b0414613a7f576040517f08c379a00000000000000000000000000000000000000000000000000000000081526004018080602001828103825260218152602001806141076021913960400191505060405180910390fd5b809150505b92915050565b600073ffffffffffffffffffffffffffffffffffffffff168273ffffffffffffffffffffffffffffffffffffffff161415613b2d576040517f08c379a000000000000000000000000000000000000000000000000000000000815260040180806020018281038252601f8152602001807f45524332303a206d696e7420746f20746865207a65726f20616464726573730081525060200191505060405180910390fd5b613b3960008383613e2d565b613b4e8160025461393290919063ffffffff16565b600281905550613ba5816000808573ffffffffffffffffffffffffffffffffffffffff1673ffffffffffffffffffffffffffffffffffffffff1681526020019081526020016000205461393290919063ffffffff16565b6000808473ffffffffffffffffffffffffffffffffffffffff1673ffffffffffffffffffffffffffffffffffffffff168152602001908152602001600020819055508173ffffffffffffffffffffffffffffffffffffffff16600073ffffffffffffffffffffffffffffffffffffffff167fddf252ad1be2c89b69c2b068fc378daa952ba7f163c4a11628f55a4df523b3ef836040518082815260200191505060405180910390a35050565b613d38846323b872dd60e01b858585604051602401808473ffffffffffffffffffffffffffffffffffffffff1673ffffffffffffffffffffffffffffffffffffffff1681526020018373ffffffffffffffffffffffffffffffffffffffff1673ffffffffffffffffffffffffffffffffffffffff1681526020018281526020019350505050604051602081830303815290604052907bffffffffffffffffffffffffffffffffffffffffffffffffffffffff19166020820180517bffffffffffffffffffffffffffffffffffffffffffffffffffffffff8381831617835250505050613d3e565b50505050565b6060613da0826040518060400160405280602081526020017f5361666545524332303a206c6f772d6c6576656c2063616c6c206661696c65648152508573ffffffffffffffffffffffffffffffffffffffff16613e329092919063ffffffff16565b9050600081511115613e2857808060200190516020811015613dc157600080fd5b8101908080519060200190929190505050613e27576040517f08c379a000000000000000000000000000000000000000000000000000000000815260040180806020018281038252602a815260200180614199602a913960400191505060405180910390fd5b5b505050565b505050565b6060613e418484600085613e4a565b90509392505050565b6060613e5585614050565b613ec7576040517f08c379a000000000000000000000000000000000000000000000000000000000815260040180806020018281038252601d8152602001807f416464726573733a2063616c6c20746f206e6f6e2d636f6e747261637400000081525060200191505060405180910390fd5b600060608673ffffffffffffffffffffffffffffffffffffffff1685876040518082805190602001908083835b60208310613f175780518252602082019150602081019050602083039250613ef4565b6001836020036101000a03801982511681845116808217855250505050505090500191505060006040518083038185875af1925050503d8060008114613f79576040519150601f19603f3d011682016040523d82523d6000602084013e613f7e565b606091505b50915091508115613f93578092505050614048565b600081511115613fa65780518082602001fd5b836040517f08c379a00000000000000000000000000000000000000000000000000000000081526004018080602001828103825283818151815260200191508051906020019080838360005b8381101561400d578082015181840152602081019050613ff2565b50505050905090810190601f16801561403a5780820380516001836020036101000a031916815260200191505b509250505060405180910390fd5b949350505050565b60008060007fc5d2460186f7233c927e7db2dcc703c0e500b653ca82273b7bfad8045d85a47060001b9050833f915080821415801561409257506000801b8214155b9250505091905056fe45524332303a207472616e7366657220746f20746865207a65726f206164647265737345524332303a20617070726f766520746f20746865207a65726f206164647265737345524332303a207472616e7366657220616d6f756e7420657863656564732062616c616e6365536166654d6174683a206d756c7469706c69636174696f6e206f766572666c6f7745524332303a207472616e7366657220616d6f756e74206578636565647320616c6c6f77616e636545524332303a207472616e736665722066726f6d20746865207a65726f206164647265737345524332303a20617070726f76652066726f6d20746865207a65726f20616464726573735361666545524332303a204552433230206f7065726174696f6e20646964206e6f74207375636365656445524332303a2064656372656173656420616c6c6f77616e63652062656c6f77207a65726fa2646970667358221220215721cf4decd575cf82638cc3aefb0e18a4773c528a96b3bb17af6b417572f764736f6c63430006060033536166654d6174683a206d756c7469706c69636174696f6e206f766572666c6f77",
  "immutableReferences": {},
  "source": "pragma solidity ^0.6.6;\n\nimport \"@openzeppelin/contracts/token/ERC20/ERC20.sol\";\nimport \"@openzeppelin/contracts/token/ERC20/SafeERC20.sol\";\nimport \"@openzeppelin/contracts/math/SafeMath.sol\";\n\ncontract DarkNyan is ERC20{\n    \n    using SafeERC20 for IERC20;\n    using SafeMath for uint256;\n\n\n    struct stakeTracker {\n        uint256 lastBlockChecked;\n        uint256 rewards;\n        uint256 catnipPoolTokens;\n        uint256 darkNyanPoolTokens;\n    }\n    \n    mapping(address => stakeTracker) private stakedBalances;\n\n\n    address owner;\n    \n    address public fundVotingAddress;\n    \n    bool public isSendingFunds = false;\n    \n    uint256 private lastBlockSent;\n    \n    uint256 public liquidityMultiplier = 70;\n    uint256 public miningDifficulty = 40000;\n    \n    IERC20 private catnip;\n    IERC20 private darkNyan;\n    \n    IERC20 private catnipV2;\n    address public catnipUniswapV2Pair;\n    \n    IERC20 private darkNyanV2;\n    address public darkNyanUniswapV2Pair;\n    \n    uint256 totalLiquidityStaked;\n\n\n    modifier _onlyOwner() {\n        require(msg.sender == owner);\n        _;\n    }\n    \n    modifier updateStakingReward(address _account) {\n        uint256 liquidityBonus;\n        if (stakedBalances[_account].darkNyanPoolTokens > 0) {\n            liquidityBonus = stakedBalances[_account].darkNyanPoolTokens/ liquidityMultiplier;\n        }\n        if (block.number > stakedBalances[_account].lastBlockChecked) {\n            uint256 rewardBlocks = block.number\n                                        .sub(stakedBalances[_account].lastBlockChecked);\n                                        \n                                        \n             \n            if (stakedBalances[_account].catnipPoolTokens > 0) {\n                stakedBalances[_account].rewards = stakedBalances[_account].rewards\n                                                                            .add(stakedBalances[_account].catnipPoolTokens)\n                                                                            .add(liquidityBonus)\n                                                                            .mul(rewardBlocks)\n                                                                            / miningDifficulty;\n            }\n            \n           \n                    \n            stakedBalances[_account].lastBlockChecked = block.number;\n            \n            \n            emit Rewards(_account, stakedBalances[_account].rewards);                                                     \n        }\n        _;\n    }\n    \n    event OwnershipTransferred(address indexed previousOwner, address indexed newOwner);\n    \n    event catnipUniStaked(address indexed user, uint256 amount, uint256 totalLiquidityStaked);\n    \n    event darkNyanUniStaked(address indexed user, uint256 amount, uint256 totalLiquidityStaked);\n    \n    event catnipUniWithdrawn(address indexed user, uint256 amount, uint256 totalLiquidityStaked);\n    \n    event darkNyanUniWithdrawn(address indexed user, uint256 amount, uint256 totalLiquidityStaked);\n    \n    event Rewards(address indexed user, uint256 reward);\n    \n    event FundsSentToFundingAddress(address indexed user, uint256 amount);\n    \n    event votingAddressChanged(address indexed user, address votingAddress);\n    \n    event catnipPairAddressChanged(address indexed user, address catnipPairAddress);\n    \n    event darkNyanPairAddressChanged(address indexed user, address darkNyanPairAddress);\n    \n    event difficultyChanged(address indexed user, uint256 difficulty);\n\n\n    constructor() public payable ERC20(\"darkNYAN\", \"dNYAN\") {\n        owner = msg.sender;\n        uint256 supply = 100;\n        _mint(msg.sender, supply.mul(10 ** 18));\n        lastBlockSent = block.number;\n    }\n    \n    function transferOwnership(address newOwner) external _onlyOwner {\n        assert(newOwner != address(0)/*, \"Ownable: new owner is the zero address\"*/);\n        emit OwnershipTransferred(owner, newOwner);\n        owner = newOwner;\n    }\n    \n    function setVotingAddress(address _account) public _onlyOwner {\n        fundVotingAddress = _account;\n        emit votingAddressChanged(msg.sender, fundVotingAddress);\n    }\n    \n    function setCatnipPairAddress(address _uniV2address) public _onlyOwner {\n        catnipUniswapV2Pair = _uniV2address;\n        catnipV2 = IERC20(catnipUniswapV2Pair);\n        emit catnipPairAddressChanged(msg.sender, catnipUniswapV2Pair);\n    }\n\n    function setdarkNyanPairAddress(address _uniV2address) public _onlyOwner {\n        darkNyanUniswapV2Pair = _uniV2address;\n        darkNyanV2 = IERC20(darkNyanUniswapV2Pair);\n        emit darkNyanPairAddressChanged(msg.sender, darkNyanUniswapV2Pair);\n    }\n    \n     function setMiningDifficulty(uint256 amount) public _onlyOwner {\n       miningDifficulty = amount;\n       emit difficultyChanged(msg.sender, miningDifficulty);\n   }\n    \n    function stakeCatnipUni(uint256 amount) public updateStakingReward(msg.sender) {\n        catnipV2.safeTransferFrom(msg.sender, address(this), amount);\n        stakedBalances[msg.sender].catnipPoolTokens = stakedBalances[msg.sender].catnipPoolTokens.add(amount);\n        totalLiquidityStaked = totalLiquidityStaked.add(amount);                                                                              \n        emit catnipUniStaked(msg.sender, stakedBalances[msg.sender].catnipPoolTokens, totalLiquidityStaked);\n    }\n    \n    function withdrawCatnipUni(uint256 amount) public updateStakingReward(msg.sender) {\n        catnipV2.safeTransfer(msg.sender, amount);\n        stakedBalances[msg.sender].catnipPoolTokens = stakedBalances[msg.sender].catnipPoolTokens.sub(amount);\n        totalLiquidityStaked = totalLiquidityStaked.sub(amount);                                                                              \n        emit catnipUniWithdrawn(msg.sender, amount, totalLiquidityStaked);\n    }\n    \n    \n    \n    function stakeDarkNyanUni(uint256 amount) public updateStakingReward(msg.sender) {\n        darkNyanV2.safeTransferFrom(msg.sender, address(this), amount);\n        stakedBalances[msg.sender].darkNyanPoolTokens = stakedBalances[msg.sender].darkNyanPoolTokens.add(amount);\n        totalLiquidityStaked = totalLiquidityStaked.add(amount);                                                                              \n        emit darkNyanUniStaked(msg.sender, amount, totalLiquidityStaked);\n    }\n    \n    function withdrawDarkNyanUni(uint256 amount) public updateStakingReward(msg.sender) {\n        darkNyanV2.safeTransfer(msg.sender, amount);\n        stakedBalances[msg.sender].darkNyanPoolTokens = stakedBalances[msg.sender].darkNyanPoolTokens.sub(amount);\n        totalLiquidityStaked = totalLiquidityStaked.sub(amount);                                                                              \n        emit darkNyanUniWithdrawn(msg.sender, amount, totalLiquidityStaked);\n    }\n    \n    function getNipUniStakeAmount(address _account) public view returns (uint256) {\n        return stakedBalances[_account].catnipPoolTokens;\n    }\n    \n    function getDNyanUniStakeAmount(address _account) public view returns (uint256) {\n        return stakedBalances[_account].darkNyanPoolTokens;\n    }\n    \n    function myRewardsBalance(address _account) public view returns(uint256) {\n        uint256 liquidityBonus;\n        if (stakedBalances[_account].darkNyanPoolTokens > 0) {\n            liquidityBonus = stakedBalances[_account].darkNyanPoolTokens / liquidityMultiplier;\n        }\n        \n        if (block.number > stakedBalances[_account].lastBlockChecked) {\n            uint256 rewardBlocks = block.number\n                                        .sub(stakedBalances[_account].lastBlockChecked);\n                                        \n                                        \n             \n            if (stakedBalances[_account].catnipPoolTokens > 0) {\n                return stakedBalances[_account].rewards\n                                                .add(stakedBalances[_account].catnipPoolTokens)\n                                                .add(liquidityBonus)\n                                                .mul(rewardBlocks)\n                                                / miningDifficulty;\n            } else {\n                return 0;\n            }\n        }\n    }\n    \n    function getReward() public updateStakingReward(msg.sender) {\n        uint256 reward = stakedBalances[msg.sender].rewards;\n       stakedBalances[msg.sender].rewards = 0;\n       _mint(msg.sender, reward.mul(8) / 10);\n       uint256 fundingPoolReward = reward.mul(2) / 10;\n       _mint(address(this), fundingPoolReward);\n       emit Rewards(msg.sender, reward);\n    }\n    \n    function toggleFundsTransfer() public _onlyOwner {\n        isSendingFunds = !isSendingFunds;\n    }\n    \n    function sendDarkNyanToFund(uint256 amount) public {\n        if (!isSendingFunds) {\n            return;\n        }\n        lastBlockSent = block.number;\n        IERC20(address(this)).safeTransfer(fundVotingAddress, amount);\n        emit FundsSentToFundingAddress(msg.sender, amount);\n    }\n    \n    \n}",
  "sourcePath": "/Users/edwin/Development/nyan-finance/contracts/DarkNyan.sol",
  "compiler": {
    "name": "solc",
    "version": "0.6.6+commit.6c089d02.Emscripten.clang"
  },
  "schemaVersion": "3.2.4",
  "updatedAt": "2020-09-11T13:34:54.331Z",
  "networkType": "ethereum",
  "devdoc": {
    "methods": {
      "allowance(address,address)": {
        "details": "See {IERC20-allowance}."
      },
      "approve(address,uint256)": {
        "details": "See {IERC20-approve}.     * Requirements:     * - `spender` cannot be the zero address."
      },
      "balanceOf(address)": {
        "details": "See {IERC20-balanceOf}."
      },
      "decimals()": {
        "details": "Returns the number of decimals used to get its user representation. For example, if `decimals` equals `2`, a balance of `505` tokens should be displayed to a user as `5,05` (`505 / 10 ** 2`).     * Tokens usually opt for a value of 18, imitating the relationship between Ether and Wei. This is the value {ERC20} uses, unless {_setupDecimals} is called.     * NOTE: This information is only used for _display_ purposes: it in no way affects any of the arithmetic of the contract, including {IERC20-balanceOf} and {IERC20-transfer}."
      },
      "decreaseAllowance(address,uint256)": {
        "details": "Atomically decreases the allowance granted to `spender` by the caller.     * This is an alternative to {approve} that can be used as a mitigation for problems described in {IERC20-approve}.     * Emits an {Approval} event indicating the updated allowance.     * Requirements:     * - `spender` cannot be the zero address. - `spender` must have allowance for the caller of at least `subtractedValue`."
      },
      "increaseAllowance(address,uint256)": {
        "details": "Atomically increases the allowance granted to `spender` by the caller.     * This is an alternative to {approve} that can be used as a mitigation for problems described in {IERC20-approve}.     * Emits an {Approval} event indicating the updated allowance.     * Requirements:     * - `spender` cannot be the zero address."
      },
      "name()": {
        "details": "Returns the name of the token."
      },
      "symbol()": {
        "details": "Returns the symbol of the token, usually a shorter version of the name."
      },
      "totalSupply()": {
        "details": "See {IERC20-totalSupply}."
      },
      "transfer(address,uint256)": {
        "details": "See {IERC20-transfer}.     * Requirements:     * - `recipient` cannot be the zero address. - the caller must have a balance of at least `amount`."
      },
      "transferFrom(address,address,uint256)": {
        "details": "See {IERC20-transferFrom}.     * Emits an {Approval} event indicating the updated allowance. This is not required by the EIP. See the note at the beginning of {ERC20};     * Requirements: - `sender` and `recipient` cannot be the zero address. - `sender` must have a balance of at least `amount`. - the caller must have allowance for ``sender``'s tokens of at least `amount`."
      }
    }
  },
  "userdoc": {
    "methods": {}
  }
}